{
  "_format": "hh-sol-artifact-1",
  "contractName": "Funds",
  "sourceName": "contracts/Funds.sol",
  "abi": [
    {
      "inputs": [
        {
          "internalType": "string",
          "name": "_data_cid",
          "type": "string"
        },
        {
          "internalType": "string",
          "name": "_fund_id",
          "type": "string"
        }
      ],
      "name": "create",
      "outputs": [],
      "stateMutability": "nonpayable",
      "type": "function"
    },
    {
      "inputs": [
        {
          "internalType": "uint256",
          "name": "",
          "type": "uint256"
        }
      ],
      "name": "createdFunds",
      "outputs": [
        {
          "internalType": "string",
          "name": "data_cid",
          "type": "string"
        },
        {
          "internalType": "string",
          "name": "fund_id",
          "type": "string"
        }
      ],
      "stateMutability": "view",
      "type": "function"
    },
    {
      "inputs": [],
      "name": "getFunds",
      "outputs": [
        {
          "components": [
            {
              "internalType": "string",
              "name": "data_cid",
              "type": "string"
            },
            {
              "internalType": "string",
              "name": "fund_id",
              "type": "string"
            }
          ],
          "internalType": "struct Funds.Fund[]",
          "name": "",
          "type": "tuple[]"
        }
      ],
      "stateMutability": "view",
      "type": "function"
    }
  ],
  "bytecode": "0x608060405234801561001057600080fd5b50610957806100206000396000f3fe608060405234801561001057600080fd5b50600436106100415760003560e01c8063198e2b8a146100465780634d9b373514610062578063a9a78e4f14610080575b600080fd5b610060600480360381019061005b919061059a565b6100b1565b005b61006a6101c1565b60405161007791906107ba565b60405180910390f35b61009a60048036038101906100959190610812565b610344565b6040516100a8929190610889565b60405180910390f35b6000604051806040016040528086868080601f016020809104026020016040519081016040528093929190818152602001838380828437600081840152601f19601f82011690508083019250505050505050815260200184848080601f016020809104026020016040519081016040528093929190818152602001838380828437600081840152601f19601f8201169050808301925050505050505081525090506000819080600181540180825580915050600190039060005260206000209060020201600090919091909150600082015181600001908051906020019061019a929190610488565b5060208201518160010190805190602001906101b7929190610488565b5050505050505050565b60606000805480602002602001604051908101604052809291908181526020016000905b8282101561033b5783829060005260206000209060020201604051806040016040529081600082018054610218906108ef565b80601f0160208091040260200160405190810160405280929190818152602001828054610244906108ef565b80156102915780601f1061026657610100808354040283529160200191610291565b820191906000526020600020905b81548152906001019060200180831161027457829003601f168201915b505050505081526020016001820180546102aa906108ef565b80601f01602080910402602001604051908101604052809291908181526020018280546102d6906108ef565b80156103235780601f106102f857610100808354040283529160200191610323565b820191906000526020600020905b81548152906001019060200180831161030657829003601f168201915b505050505081525050815260200190600101906101e5565b50505050905090565b6000818154811061035457600080fd5b9060005260206000209060020201600091509050806000018054610377906108ef565b80601f01602080910402602001604051908101604052809291908181526020018280546103a3906108ef565b80156103f05780601f106103c5576101008083540402835291602001916103f0565b820191906000526020600020905b8154815290600101906020018083116103d357829003601f168201915b505050505090806001018054610405906108ef565b80601f0160208091040260200160405190810160405280929190818152602001828054610431906108ef565b801561047e5780601f106104535761010080835404028352916020019161047e565b820191906000526020600020905b81548152906001019060200180831161046157829003601f168201915b5050505050905082565b828054610494906108ef565b90600052602060002090601f0160209004810192826104b657600085556104fd565b82601f106104cf57805160ff19168380011785556104fd565b828001600101855582156104fd579182015b828111156104fc5782518255916020019190600101906104e1565b5b50905061050a919061050e565b5090565b5b8082111561052757600081600090555060010161050f565b5090565b600080fd5b600080fd5b600080fd5b600080fd5b600080fd5b60008083601f84011261055a57610559610535565b5b8235905067ffffffffffffffff8111156105775761057661053a565b5b6020830191508360018202830111156105935761059261053f565b5b9250929050565b600080600080604085870312156105b4576105b361052b565b5b600085013567ffffffffffffffff8111156105d2576105d1610530565b5b6105de87828801610544565b9450945050602085013567ffffffffffffffff81111561060157610600610530565b5b61060d87828801610544565b925092505092959194509250565b600081519050919050565b600082825260208201905092915050565b6000819050602082019050919050565b600081519050919050565b600082825260208201905092915050565b60005b83811015610681578082015181840152602081019050610666565b83811115610690576000848401525b50505050565b6000601f19601f8301169050919050565b60006106b282610647565b6106bc8185610652565b93506106cc818560208601610663565b6106d581610696565b840191505092915050565b600060408301600083015184820360008601526106fd82826106a7565b9150506020830151848203602086015261071782826106a7565b9150508091505092915050565b600061073083836106e0565b905092915050565b6000602082019050919050565b60006107508261061b565b61075a8185610626565b93508360208202850161076c85610637565b8060005b858110156107a857848403895281516107898582610724565b945061079483610738565b925060208a01995050600181019050610770565b50829750879550505050505092915050565b600060208201905081810360008301526107d48184610745565b905092915050565b6000819050919050565b6107ef816107dc565b81146107fa57600080fd5b50565b60008135905061080c816107e6565b92915050565b6000602082840312156108285761082761052b565b5b6000610836848285016107fd565b91505092915050565b600082825260208201905092915050565b600061085b82610647565b610865818561083f565b9350610875818560208601610663565b61087e81610696565b840191505092915050565b600060408201905081810360008301526108a38185610850565b905081810360208301526108b78184610850565b90509392505050565b7f4e487b7100000000000000000000000000000000000000000000000000000000600052602260045260246000fd5b6000600282049050600182168061090757607f821691505b6020821081141561091b5761091a6108c0565b5b5091905056fea2646970667358221220b09f602bf77b00d7c647c1aadda0ff40229ef2378990a999825c4b3df5c34b6564736f6c63430008090033",
  "linkReferences": {},
  "deployedLinkReferences": {}
}