{
  "_format": "hh-sol-artifact-1",
  "contractName": "Funds",
  "sourceName": "contracts/Funds.sol",
  "abi": [
    {
      "inputs": [
        {
          "internalType": "string",
          "name": "fundName",
          "type": "string"
        }
      ],
      "name": "create",
      "outputs": [],
      "stateMutability": "nonpayable",
      "type": "function"
    },
    {
      "inputs": [
        {
          "internalType": "uint256",
          "name": "",
          "type": "uint256"
        }
      ],
      "name": "createdFunds",
      "outputs": [
        {
          "internalType": "string",
          "name": "",
          "type": "string"
        }
      ],
      "stateMutability": "view",
      "type": "function"
    },
    {
      "inputs": [],
      "name": "getFunds",
      "outputs": [
        {
          "internalType": "string[]",
          "name": "",
          "type": "string[]"
        }
      ],
      "stateMutability": "view",
      "type": "function"
    }
  ],
  "bytecode": "0x608060405234801561001057600080fd5b506106b9806100206000396000f3fe608060405234801561001057600080fd5b50600436106100415760003560e01c80634d9b373514610046578063a9a78e4f14610064578063b6a46b3b14610094575b600080fd5b61004e6100b0565b60405161005b9190610475565b60405180910390f35b61007e600480360381019061007991906104d7565b610189565b60405161008b919061054e565b60405180910390f35b6100ae60048036038101906100a991906105d5565b610235565b005b60606000805480602002602001604051908101604052809291908181526020016000905b828210156101805783829060005260206000200180546100f390610651565b80601f016020809104026020016040519081016040528092919081815260200182805461011f90610651565b801561016c5780601f106101415761010080835404028352916020019161016c565b820191906000526020600020905b81548152906001019060200180831161014f57829003601f168201915b5050505050815260200190600101906100d4565b50505050905090565b6000818154811061019957600080fd5b9060005260206000200160009150905080546101b490610651565b80601f01602080910402602001604051908101604052809291908181526020018280546101e090610651565b801561022d5780601f106102025761010080835404028352916020019161022d565b820191906000526020600020905b81548152906001019060200180831161021057829003601f168201915b505050505081565b6000828290918060018154018082558091505060019003906000526020600020016000909192909192909192909192509190610272929190610277565b505050565b82805461028390610651565b90600052602060002090601f0160209004810192826102a557600085556102ec565b82601f106102be57803560ff19168380011785556102ec565b828001600101855582156102ec579182015b828111156102eb5782358255916020019190600101906102d0565b5b5090506102f991906102fd565b5090565b5b808211156103165760008160009055506001016102fe565b5090565b600081519050919050565b600082825260208201905092915050565b6000819050602082019050919050565b600081519050919050565b600082825260208201905092915050565b60005b83811015610380578082015181840152602081019050610365565b8381111561038f576000848401525b50505050565b6000601f19601f8301169050919050565b60006103b182610346565b6103bb8185610351565b93506103cb818560208601610362565b6103d481610395565b840191505092915050565b60006103eb83836103a6565b905092915050565b6000602082019050919050565b600061040b8261031a565b6104158185610325565b93508360208202850161042785610336565b8060005b85811015610463578484038952815161044485826103df565b945061044f836103f3565b925060208a0199505060018101905061042b565b50829750879550505050505092915050565b6000602082019050818103600083015261048f8184610400565b905092915050565b600080fd5b600080fd5b6000819050919050565b6104b4816104a1565b81146104bf57600080fd5b50565b6000813590506104d1816104ab565b92915050565b6000602082840312156104ed576104ec610497565b5b60006104fb848285016104c2565b91505092915050565b600082825260208201905092915050565b600061052082610346565b61052a8185610504565b935061053a818560208601610362565b61054381610395565b840191505092915050565b600060208201905081810360008301526105688184610515565b905092915050565b600080fd5b600080fd5b600080fd5b60008083601f84011261059557610594610570565b5b8235905067ffffffffffffffff8111156105b2576105b1610575565b5b6020830191508360018202830111156105ce576105cd61057a565b5b9250929050565b600080602083850312156105ec576105eb610497565b5b600083013567ffffffffffffffff81111561060a5761060961049c565b5b6106168582860161057f565b92509250509250929050565b7f4e487b7100000000000000000000000000000000000000000000000000000000600052602260045260246000fd5b6000600282049050600182168061066957607f821691505b6020821081141561067d5761067c610622565b5b5091905056fea264697066735822122059677750148e66630e9c09092303d73a67676480fd6ab7e7c838b6dfc6c8278064736f6c63430008090033",
  "linkReferences": {},
  "deployedLinkReferences": {}
}