{
  "_format": "hh-sol-artifact-1",
  "contractName": "multitransaction",
  "sourceName": "contracts/multitransaction.sol",
  "abi": [
    {
      "inputs": [],
      "stateMutability": "payable",
      "type": "constructor"
    },
    {
      "inputs": [],
      "name": "blocknum",
      "outputs": [
        {
          "internalType": "uint256",
          "name": "",
          "type": "uint256"
        }
      ],
      "stateMutability": "view",
      "type": "function"
    },
    {
      "inputs": [
        {
          "internalType": "address",
          "name": "_to",
          "type": "address"
        },
        {
          "internalType": "uint256",
          "name": "_amount",
          "type": "uint256"
        }
      ],
      "name": "hashmsg",
      "outputs": [
        {
          "internalType": "bytes32",
          "name": "",
          "type": "bytes32"
        }
      ],
      "stateMutability": "pure",
      "type": "function"
    },
    {
      "inputs": [
        {
          "internalType": "address payable[]",
          "name": "_reciever",
          "type": "address[]"
        },
        {
          "internalType": "uint256",
          "name": "amount",
          "type": "uint256"
        },
        {
          "internalType": "bytes",
          "name": "_Signature",
          "type": "bytes"
        }
      ],
      "name": "sendether",
      "outputs": [],
      "stateMutability": "payable",
      "type": "function"
    }
  ],
  "bytecode": "0x6080604052610c10806100136000396000f3fe6080604052600436106100345760003560e01c80631f9398b51461003957806372a8942d146100555780637e1a9a8e14610092575b600080fd5b610053600480360381019061004e919061067c565b6100bd565b005b34801561006157600080fd5b5061007c60048036038101906100779190610745565b610224565b604051610089919061079e565b60405180910390f35b34801561009e57600080fd5b506100a7610257565b6040516100b491906107c8565b60405180910390f35b348284516100cb9190610812565b111561010c576040517f08c379a0000000000000000000000000000000000000000000000000000000008152600401610103906108d7565b60405180910390fd5b6101183083338461025f565b610157576040517f08c379a000000000000000000000000000000000000000000000000000000000815260040161014e90610943565b60405180910390fd5b60005b83518110156101d75783818151811061017657610175610963565b5b602002602001015173ffffffffffffffffffffffffffffffffffffffff166108fc849081150290604051600060405180830381858888f193505050501580156101c3573d6000803e3d6000fd5b5080806101cf90610992565b91505061015a565b503373ffffffffffffffffffffffffffffffffffffffff166108fc479081150290604051600060405180830381858888f1935050505015801561021e573d6000803e3d6000fd5b50505050565b60008282604051602001610239929190610a43565b60405160208183030381529060405280519060200120905092915050565b600043905090565b60008061026c8686610224565b90506000610279826102bf565b90508473ffffffffffffffffffffffffffffffffffffffff1661029c82866102ef565b73ffffffffffffffffffffffffffffffffffffffff161492505050949350505050565b6000816040516020016102d29190610ae7565b604051602081830303815290604052805190602001209050919050565b6000806000806102fe8561035e565b925092509250600186828585604051600081526020016040526040516103279493929190610b29565b6020604051602081039080840390855afa158015610349573d6000803e3d6000fd5b50505060206040510351935050505092915050565b600080600060418451146103a7576040517f08c379a000000000000000000000000000000000000000000000000000000000815260040161039e90610bba565b60405180910390fd5b6020840151925060408401519150606084015160001a90509193909250565b6000604051905090565b600080fd5b600080fd5b600080fd5b6000601f19601f8301169050919050565b7f4e487b7100000000000000000000000000000000000000000000000000000000600052604160045260246000fd5b610428826103df565b810181811067ffffffffffffffff82111715610447576104466103f0565b5b80604052505050565b600061045a6103c6565b9050610466828261041f565b919050565b600067ffffffffffffffff821115610486576104856103f0565b5b602082029050602081019050919050565b600080fd5b600073ffffffffffffffffffffffffffffffffffffffff82169050919050565b60006104c78261049c565b9050919050565b6104d7816104bc565b81146104e257600080fd5b50565b6000813590506104f4816104ce565b92915050565b600061050d6105088461046b565b610450565b905080838252602082019050602084028301858111156105305761052f610497565b5b835b81811015610559578061054588826104e5565b845260208401935050602081019050610532565b5050509392505050565b600082601f830112610578576105776103da565b5b81356105888482602086016104fa565b91505092915050565b6000819050919050565b6105a481610591565b81146105af57600080fd5b50565b6000813590506105c18161059b565b92915050565b600080fd5b600067ffffffffffffffff8211156105e7576105e66103f0565b5b6105f0826103df565b9050602081019050919050565b82818337600083830152505050565b600061061f61061a846105cc565b610450565b90508281526020810184848401111561063b5761063a6105c7565b5b6106468482856105fd565b509392505050565b600082601f830112610663576106626103da565b5b813561067384826020860161060c565b91505092915050565b600080600060608486031215610695576106946103d0565b5b600084013567ffffffffffffffff8111156106b3576106b26103d5565b5b6106bf86828701610563565b93505060206106d0868287016105b2565b925050604084013567ffffffffffffffff8111156106f1576106f06103d5565b5b6106fd8682870161064e565b9150509250925092565b60006107128261049c565b9050919050565b61072281610707565b811461072d57600080fd5b50565b60008135905061073f81610719565b92915050565b6000806040838503121561075c5761075b6103d0565b5b600061076a85828601610730565b925050602061077b858286016105b2565b9150509250929050565b6000819050919050565b61079881610785565b82525050565b60006020820190506107b3600083018461078f565b92915050565b6107c281610591565b82525050565b60006020820190506107dd60008301846107b9565b92915050565b7f4e487b7100000000000000000000000000000000000000000000000000000000600052601160045260246000fd5b600061081d82610591565b915061082883610591565b925082820261083681610591565b9150828204841483151761084d5761084c6107e3565b5b5092915050565b600082825260208201905092915050565b7f74686520616d6f756e742073656e74206973206c657373207468616e2074686560008201527f2072657175697265640000000000000000000000000000000000000000000000602082015250565b60006108c1602983610854565b91506108cc82610865565b604082019050919050565b600060208201905081810360008301526108f0816108b4565b9050919050565b7f6e6f742076616c6964207369676e000000000000000000000000000000000000600082015250565b600061092d600e83610854565b9150610938826108f7565b602082019050919050565b6000602082019050818103600083015261095c81610920565b9050919050565b7f4e487b7100000000000000000000000000000000000000000000000000000000600052603260045260246000fd5b600061099d82610591565b91507fffffffffffffffffffffffffffffffffffffffffffffffffffffffffffffffff82036109cf576109ce6107e3565b5b600182019050919050565b60008160601b9050919050565b60006109f2826109da565b9050919050565b6000610a04826109e7565b9050919050565b610a1c610a1782610707565b6109f9565b82525050565b6000819050919050565b610a3d610a3882610591565b610a22565b82525050565b6000610a4f8285610a0b565b601482019150610a5f8284610a2c565b6020820191508190509392505050565b600081905092915050565b7f19457468657265756d205369676e6564204d6573736167653a0a333200000000600082015250565b6000610ab0601c83610a6f565b9150610abb82610a7a565b601c82019050919050565b6000819050919050565b610ae1610adc82610785565b610ac6565b82525050565b6000610af282610aa3565b9150610afe8284610ad0565b60208201915081905092915050565b600060ff82169050919050565b610b2381610b0d565b82525050565b6000608082019050610b3e600083018761078f565b610b4b6020830186610b1a565b610b58604083018561078f565b610b65606083018461078f565b95945050505050565b7f696e76616c6964207369676e6174757265206c656e6774680000000000000000600082015250565b6000610ba4601883610854565b9150610baf82610b6e565b602082019050919050565b60006020820190508181036000830152610bd381610b97565b905091905056fea264697066735822122057fde084c0aab10dce889d3669ec6cb265cd2758a68bad9d7d253765b778e1f664736f6c63430008120033",
  "linkReferences": {},
  "deployedLinkReferences": {}
}